{
  "_format": "hh-sol-artifact-1",
  "contractName": "FiONFT",
  "sourceName": "contracts/nft-sample.sol",
  "abi": [
    {
      "inputs": [],
      "stateMutability": "nonpayable",
      "type": "constructor"
    },
    {
      "anonymous": false,
      "inputs": [
        {
          "indexed": true,
          "internalType": "address",
          "name": "owner",
          "type": "address"
        },
        {
          "indexed": true,
          "internalType": "address",
          "name": "approved",
          "type": "address"
        },
        {
          "indexed": true,
          "internalType": "uint256",
          "name": "tokenId",
          "type": "uint256"
        }
      ],
      "name": "Approval",
      "type": "event"
    },
    {
      "anonymous": false,
      "inputs": [
        {
          "indexed": true,
          "internalType": "address",
          "name": "owner",
          "type": "address"
        },
        {
          "indexed": true,
          "internalType": "address",
          "name": "operator",
          "type": "address"
        },
        {
          "indexed": false,
          "internalType": "bool",
          "name": "approved",
          "type": "bool"
        }
      ],
      "name": "ApprovalForAll",
      "type": "event"
    },
    {
      "anonymous": false,
      "inputs": [
        {
          "indexed": true,
          "internalType": "address",
          "name": "previousOwner",
          "type": "address"
        },
        {
          "indexed": true,
          "internalType": "address",
          "name": "newOwner",
          "type": "address"
        }
      ],
      "name": "OwnershipTransferred",
      "type": "event"
    },
    {
      "anonymous": false,
      "inputs": [
        {
          "indexed": true,
          "internalType": "address",
          "name": "from",
          "type": "address"
        },
        {
          "indexed": true,
          "internalType": "address",
          "name": "to",
          "type": "address"
        },
        {
          "indexed": true,
          "internalType": "uint256",
          "name": "tokenId",
          "type": "uint256"
        }
      ],
      "name": "Transfer",
      "type": "event"
    },
    {
      "inputs": [
        {
          "internalType": "address",
          "name": "to",
          "type": "address"
        },
        {
          "internalType": "uint256",
          "name": "tokenId",
          "type": "uint256"
        }
      ],
      "name": "approve",
      "outputs": [],
      "stateMutability": "nonpayable",
      "type": "function"
    },
    {
      "inputs": [
        {
          "internalType": "address",
          "name": "owner",
          "type": "address"
        }
      ],
      "name": "balanceOf",
      "outputs": [
        {
          "internalType": "uint256",
          "name": "",
          "type": "uint256"
        }
      ],
      "stateMutability": "view",
      "type": "function"
    },
    {
      "inputs": [
        {
          "internalType": "address",
          "name": "player",
          "type": "address"
        },
        {
          "internalType": "string",
          "name": "tokenURI",
          "type": "string"
        }
      ],
      "name": "createNFT",
      "outputs": [
        {
          "internalType": "uint256",
          "name": "",
          "type": "uint256"
        }
      ],
      "stateMutability": "nonpayable",
      "type": "function"
    },
    {
      "inputs": [
        {
          "internalType": "uint256",
          "name": "tokenId",
          "type": "uint256"
        }
      ],
      "name": "getApproved",
      "outputs": [
        {
          "internalType": "address",
          "name": "",
          "type": "address"
        }
      ],
      "stateMutability": "view",
      "type": "function"
    },
    {
      "inputs": [
        {
          "internalType": "address",
          "name": "owner",
          "type": "address"
        },
        {
          "internalType": "address",
          "name": "operator",
          "type": "address"
        }
      ],
      "name": "isApprovedForAll",
      "outputs": [
        {
          "internalType": "bool",
          "name": "",
          "type": "bool"
        }
      ],
      "stateMutability": "view",
      "type": "function"
    },
    {
      "inputs": [],
      "name": "name",
      "outputs": [
        {
          "internalType": "string",
          "name": "",
          "type": "string"
        }
      ],
      "stateMutability": "view",
      "type": "function"
    },
    {
      "inputs": [],
      "name": "owner",
      "outputs": [
        {
          "internalType": "address",
          "name": "",
          "type": "address"
        }
      ],
      "stateMutability": "view",
      "type": "function"
    },
    {
      "inputs": [
        {
          "internalType": "uint256",
          "name": "tokenId",
          "type": "uint256"
        }
      ],
      "name": "ownerOf",
      "outputs": [
        {
          "internalType": "address",
          "name": "",
          "type": "address"
        }
      ],
      "stateMutability": "view",
      "type": "function"
    },
    {
      "inputs": [],
      "name": "renounceOwnership",
      "outputs": [],
      "stateMutability": "nonpayable",
      "type": "function"
    },
    {
      "inputs": [
        {
          "internalType": "address",
          "name": "from",
          "type": "address"
        },
        {
          "internalType": "address",
          "name": "to",
          "type": "address"
        },
        {
          "internalType": "uint256",
          "name": "tokenId",
          "type": "uint256"
        }
      ],
      "name": "safeTransferFrom",
      "outputs": [],
      "stateMutability": "nonpayable",
      "type": "function"
    },
    {
      "inputs": [
        {
          "internalType": "address",
          "name": "from",
          "type": "address"
        },
        {
          "internalType": "address",
          "name": "to",
          "type": "address"
        },
        {
          "internalType": "uint256",
          "name": "tokenId",
          "type": "uint256"
        },
        {
          "internalType": "bytes",
          "name": "_data",
          "type": "bytes"
        }
      ],
      "name": "safeTransferFrom",
      "outputs": [],
      "stateMutability": "nonpayable",
      "type": "function"
    },
    {
      "inputs": [
        {
          "internalType": "address",
          "name": "operator",
          "type": "address"
        },
        {
          "internalType": "bool",
          "name": "approved",
          "type": "bool"
        }
      ],
      "name": "setApprovalForAll",
      "outputs": [],
      "stateMutability": "nonpayable",
      "type": "function"
    },
    {
      "inputs": [
        {
          "internalType": "bytes4",
          "name": "interfaceId",
          "type": "bytes4"
        }
      ],
      "name": "supportsInterface",
      "outputs": [
        {
          "internalType": "bool",
          "name": "",
          "type": "bool"
        }
      ],
      "stateMutability": "view",
      "type": "function"
    },
    {
      "inputs": [],
      "name": "symbol",
      "outputs": [
        {
          "internalType": "string",
          "name": "",
          "type": "string"
        }
      ],
      "stateMutability": "view",
      "type": "function"
    },
    {
      "inputs": [
        {
          "internalType": "uint256",
          "name": "tokenId",
          "type": "uint256"
        }
      ],
      "name": "tokenURI",
      "outputs": [
        {
          "internalType": "string",
          "name": "",
          "type": "string"
        }
      ],
      "stateMutability": "view",
      "type": "function"
    },
    {
      "inputs": [
        {
          "internalType": "address",
          "name": "from",
          "type": "address"
        },
        {
          "internalType": "address",
          "name": "to",
          "type": "address"
        },
        {
          "internalType": "uint256",
          "name": "tokenId",
          "type": "uint256"
        }
      ],
      "name": "transferFrom",
      "outputs": [],
      "stateMutability": "nonpayable",
      "type": "function"
    },
    {
      "inputs": [
        {
          "internalType": "address",
          "name": "newOwner",
          "type": "address"
        }
      ],
      "name": "transferOwnership",
      "outputs": [],
      "stateMutability": "nonpayable",
      "type": "function"
    }
  ],
  "bytecode": "0x60806040523480156200001157600080fd5b506040518060400160405280600981526020016846694f53616d706c6560b81b8152506040518060400160405280600481526020016346694f5360e01b815250600062000063620000e160201b60201c565b600080546001600160a01b0319166001600160a01b0383169081178255604051929350917f8be0079c531659141344cd1fd0a4f28419497f9722a3daafe3b4186f6b6457e0908290a3508151620000c2906001906020850190620000e5565b508051620000d8906002906020840190620000e5565b505050620001c8565b3390565b828054620000f3906200018b565b90600052602060002090601f01602090048101928262000117576000855562000162565b82601f106200013257805160ff191683800117855562000162565b8280016001018555821562000162579182015b828111156200016257825182559160200191906001019062000145565b506200017092915062000174565b5090565b5b8082111562000170576000815560010162000175565b600281046001821680620001a057607f821691505b60208210811415620001c257634e487b7160e01b600052602260045260246000fd5b50919050565b611a7180620001d86000396000f3fe608060405234801561001057600080fd5b506004361061010b5760003560e01c8063715018a6116100a2578063a561403311610071578063a561403314610207578063b88d4fde1461021a578063c87b56dd1461022d578063e985e9c514610240578063f2fde38b146102535761010b565b8063715018a6146101dc5780638da5cb5b146101e457806395d89b41146101ec578063a22cb465146101f45761010b565b806323b872dd116100de57806323b872dd1461018357806342842e0e146101965780636352211e146101a957806370a08231146101bc5761010b565b806301ffc9a71461011057806306fdde0314610139578063081812fc1461014e578063095ea7b31461016e575b600080fd5b61012361011e3660046112df565b610266565b60405161013091906113db565b60405180910390f35b6101416102ae565b60405161013091906113e6565b61016161015c366004611317565b610340565b604051610130919061138a565b61018161017c3660046112b6565b61038c565b005b610181610191366004611169565b610424565b6101816101a4366004611169565b61045c565b6101616101b7366004611317565b610477565b6101cf6101ca36600461111d565b6104ac565b60405161013091906118fe565b6101816104f0565b610161610579565b610141610588565b61018161020236600461121d565b610597565b6101cf610215366004611257565b610665565b6101816102283660046111a4565b6106d9565b61014161023b366004611317565b610718565b61012361024e366004611137565b610839565b61018161026136600461111d565b610867565b60006001600160e01b031982166380ac58cd60e01b148061029757506001600160e01b03198216635b5e139f60e01b145b806102a657506102a682610927565b90505b919050565b6060600180546102bd90611976565b80601f01602080910402602001604051908101604052809291908181526020018280546102e990611976565b80156103365780601f1061030b57610100808354040283529160200191610336565b820191906000526020600020905b81548152906001019060200180831161031957829003601f168201915b5050505050905090565b600061034b82610940565b6103705760405162461bcd60e51b815260040161036790611753565b60405180910390fd5b506000908152600560205260409020546001600160a01b031690565b600061039782610477565b9050806001600160a01b0316836001600160a01b031614156103cb5760405162461bcd60e51b81526004016103679061186c565b806001600160a01b03166103dd61095d565b6001600160a01b031614806103f957506103f98161024e61095d565b6104155760405162461bcd60e51b81526004016103679061158f565b61041f8383610961565b505050565b61043561042f61095d565b826109cf565b6104515760405162461bcd60e51b8152600401610367906118ad565b61041f838383610a4c565b61041f838383604051806020016040528060008152506106d9565b6000818152600360205260408120546001600160a01b0316806102a65760405162461bcd60e51b815260040161036790611636565b60006001600160a01b0382166104d45760405162461bcd60e51b8152600401610367906115ec565b506001600160a01b031660009081526004602052604090205490565b6104f861095d565b6001600160a01b0316610509610579565b6001600160a01b03161461052f5760405162461bcd60e51b81526004016103679061179f565b600080546040516001600160a01b03909116907f8be0079c531659141344cd1fd0a4f28419497f9722a3daafe3b4186f6b6457e0908390a3600080546001600160a01b0319169055565b6000546001600160a01b031690565b6060600280546102bd90611976565b61059f61095d565b6001600160a01b0316826001600160a01b031614156105d05760405162461bcd60e51b81526004016103679061150c565b80600660006105dd61095d565b6001600160a01b03908116825260208083019390935260409182016000908120918716808252919093529120805460ff19169215159290921790915561062161095d565b6001600160a01b03167f17307eab39ab6107e8899845ad3d59bd9653f200f220920489ca2b5937696c318360405161065991906113db565b60405180910390a35050565b600061066f61095d565b6001600160a01b0316610680610579565b6001600160a01b0316146106a65760405162461bcd60e51b81526004016103679061179f565b6106b06008610b79565b60006106bc6008610b82565b90506106c88482610b86565b6106d28184610ba4565b9392505050565b6106ea6106e461095d565b836109cf565b6107065760405162461bcd60e51b8152600401610367906118ad565b61071284848484610be8565b50505050565b606061072382610940565b61073f5760405162461bcd60e51b815260040161036790611702565b6000828152600760205260408120805461075890611976565b80601f016020809104026020016040519081016040528092919081815260200182805461078490611976565b80156107d15780601f106107a6576101008083540402835291602001916107d1565b820191906000526020600020905b8154815290600101906020018083116107b457829003601f168201915b5050505050905060006107e2610c1b565b90508051600014156107f6575090506102a9565b81511561082857808260405160200161081092919061135b565b604051602081830303815290604052925050506102a9565b61083184610c2d565b949350505050565b6001600160a01b03918216600090815260066020908152604080832093909416825291909152205460ff1690565b61086f61095d565b6001600160a01b0316610880610579565b6001600160a01b0316146108a65760405162461bcd60e51b81526004016103679061179f565b6001600160a01b0381166108cc5760405162461bcd60e51b81526004016103679061144b565b600080546040516001600160a01b03808516939216917f8be0079c531659141344cd1fd0a4f28419497f9722a3daafe3b4186f6b6457e091a3600080546001600160a01b0319166001600160a01b0392909216919091179055565b6001600160e01b031981166301ffc9a760e01b14919050565b6000908152600360205260409020546001600160a01b0316151590565b3390565b600081815260056020526040902080546001600160a01b0319166001600160a01b038416908117909155819061099682610477565b6001600160a01b03167f8c5be1e5ebec7d5bd14f71427d1e84f3dd0314c0f7b2291e5b200ac8c7c3b92560405160405180910390a45050565b60006109da82610940565b6109f65760405162461bcd60e51b815260040161036790611543565b6000610a0183610477565b9050806001600160a01b0316846001600160a01b03161480610a3c5750836001600160a01b0316610a3184610340565b6001600160a01b0316145b8061083157506108318185610839565b826001600160a01b0316610a5f82610477565b6001600160a01b031614610a855760405162461bcd60e51b8152600401610367906117d4565b6001600160a01b038216610aab5760405162461bcd60e51b8152600401610367906114c8565b610ab683838361041f565b610ac1600082610961565b6001600160a01b0383166000908152600460205260408120805460019290610aea908490611933565b90915550506001600160a01b0382166000908152600460205260408120805460019290610b18908490611907565b909155505060008181526003602052604080822080546001600160a01b0319166001600160a01b0386811691821790925591518493918716917fddf252ad1be2c89b69c2b068fc378daa952ba7f163c4a11628f55a4df523b3ef91a4505050565b80546001019055565b5490565b610ba0828260405180602001604052806000815250610caf565b5050565b610bad82610940565b610bc95760405162461bcd60e51b81526004016103679061167f565b6000828152600760209081526040909120825161041f92840190610ffd565b610bf3848484610a4c565b610bff84848484610ce2565b6107125760405162461bcd60e51b8152600401610367906113f9565b60408051602081019091526000815290565b6060610c3882610940565b610c545760405162461bcd60e51b81526004016103679061181d565b6000610c5e610c1b565b90506000815111610c7e57604051806020016040528060008152506106d2565b80610c8884610dfd565b604051602001610c9992919061135b565b6040516020818303038152906040529392505050565b610cb98383610f18565b610cc66000848484610ce2565b61041f5760405162461bcd60e51b8152600401610367906113f9565b6000610cf6846001600160a01b0316610ff7565b15610df257836001600160a01b031663150b7a02610d1261095d565b8786866040518563ffffffff1660e01b8152600401610d34949392919061139e565b602060405180830381600087803b158015610d4e57600080fd5b505af1925050508015610d7e575060408051601f3d908101601f19168201909252610d7b918101906112fb565b60015b610dd8573d808015610dac576040519150601f19603f3d011682016040523d82523d6000602084013e610db1565b606091505b508051610dd05760405162461bcd60e51b8152600401610367906113f9565b805181602001fd5b6001600160e01b031916630a85bd0160e11b149050610831565b506001949350505050565b606081610e2257506040805180820190915260018152600360fc1b60208201526102a9565b8160005b8115610e4c5780610e36816119b1565b9150610e459050600a8361191f565b9150610e26565b60008167ffffffffffffffff811115610e7557634e487b7160e01b600052604160045260246000fd5b6040519080825280601f01601f191660200182016040528015610e9f576020820181803683370190505b5090505b841561083157610eb4600183611933565b9150610ec1600a866119cc565b610ecc906030611907565b60f81b818381518110610eef57634e487b7160e01b600052603260045260246000fd5b60200101906001600160f81b031916908160001a905350610f11600a8661191f565b9450610ea3565b6001600160a01b038216610f3e5760405162461bcd60e51b8152600401610367906116cd565b610f4781610940565b15610f645760405162461bcd60e51b815260040161036790611491565b610f706000838361041f565b6001600160a01b0382166000908152600460205260408120805460019290610f99908490611907565b909155505060008181526003602052604080822080546001600160a01b0319166001600160a01b03861690811790915590518392907fddf252ad1be2c89b69c2b068fc378daa952ba7f163c4a11628f55a4df523b3ef908290a45050565b3b151590565b82805461100990611976565b90600052602060002090601f01602090048101928261102b5760008555611071565b82601f1061104457805160ff1916838001178555611071565b82800160010185558215611071579182015b82811115611071578251825591602001919060010190611056565b5061107d929150611081565b5090565b5b8082111561107d5760008155600101611082565b600067ffffffffffffffff808411156110b1576110b1611a0c565b604051601f8501601f1916810160200182811182821017156110d5576110d5611a0c565b6040528481529150818385018610156110ed57600080fd5b8484602083013760006020868301015250509392505050565b80356001600160a01b03811681146102a957600080fd5b60006020828403121561112e578081fd5b6106d282611106565b60008060408385031215611149578081fd5b61115283611106565b915061116060208401611106565b90509250929050565b60008060006060848603121561117d578081fd5b61118684611106565b925061119460208501611106565b9150604084013590509250925092565b600080600080608085870312156111b9578081fd5b6111c285611106565b93506111d060208601611106565b925060408501359150606085013567ffffffffffffffff8111156111f2578182fd5b8501601f81018713611202578182fd5b61121187823560208401611096565b91505092959194509250565b6000806040838503121561122f578182fd5b61123883611106565b91506020830135801515811461124c578182fd5b809150509250929050565b60008060408385031215611269578182fd5b61127283611106565b9150602083013567ffffffffffffffff81111561128d578182fd5b8301601f8101851361129d578182fd5b6112ac85823560208401611096565b9150509250929050565b600080604083850312156112c8578182fd5b6112d183611106565b946020939093013593505050565b6000602082840312156112f0578081fd5b81356106d281611a22565b60006020828403121561130c578081fd5b81516106d281611a22565b600060208284031215611328578081fd5b5035919050565b6000815180845261134781602086016020860161194a565b601f01601f19169290920160200192915050565b6000835161136d81846020880161194a565b83519083019061138181836020880161194a565b01949350505050565b6001600160a01b0391909116815260200190565b6001600160a01b03858116825284166020820152604081018390526080606082018190526000906113d19083018461132f565b9695505050505050565b901515815260200190565b6000602082526106d2602083018461132f565b60208082526032908201527f4552433732313a207472616e7366657220746f206e6f6e20455243373231526560408201527131b2b4bb32b91034b6b83632b6b2b73a32b960711b606082015260800190565b60208082526026908201527f4f776e61626c653a206e6577206f776e657220697320746865207a65726f206160408201526564647265737360d01b606082015260800190565b6020808252601c908201527f4552433732313a20746f6b656e20616c7265616479206d696e74656400000000604082015260600190565b60208082526024908201527f4552433732313a207472616e7366657220746f20746865207a65726f206164646040820152637265737360e01b606082015260800190565b60208082526019908201527f4552433732313a20617070726f766520746f2063616c6c657200000000000000604082015260600190565b6020808252602c908201527f4552433732313a206f70657261746f7220717565727920666f72206e6f6e657860408201526b34b9ba32b73a103a37b5b2b760a11b606082015260800190565b60208082526038908201527f4552433732313a20617070726f76652063616c6c6572206973206e6f74206f7760408201527f6e6572206e6f7220617070726f76656420666f7220616c6c0000000000000000606082015260800190565b6020808252602a908201527f4552433732313a2062616c616e636520717565727920666f7220746865207a65604082015269726f206164647265737360b01b606082015260800190565b60208082526029908201527f4552433732313a206f776e657220717565727920666f72206e6f6e657869737460408201526832b73a103a37b5b2b760b91b606082015260800190565b6020808252602e908201527f45524337323155524953746f726167653a2055524920736574206f66206e6f6e60408201526d32bc34b9ba32b73a103a37b5b2b760911b606082015260800190565b6020808252818101527f4552433732313a206d696e7420746f20746865207a65726f2061646472657373604082015260600190565b60208082526031908201527f45524337323155524953746f726167653a2055524920717565727920666f72206040820152703737b732bc34b9ba32b73a103a37b5b2b760791b606082015260800190565b6020808252602c908201527f4552433732313a20617070726f76656420717565727920666f72206e6f6e657860408201526b34b9ba32b73a103a37b5b2b760a11b606082015260800190565b6020808252818101527f4f776e61626c653a2063616c6c6572206973206e6f7420746865206f776e6572604082015260600190565b60208082526029908201527f4552433732313a207472616e73666572206f6620746f6b656e2074686174206960408201526839903737ba1037bbb760b91b606082015260800190565b6020808252602f908201527f4552433732314d657461646174613a2055524920717565727920666f72206e6f60408201526e3732bc34b9ba32b73a103a37b5b2b760891b606082015260800190565b60208082526021908201527f4552433732313a20617070726f76616c20746f2063757272656e74206f776e656040820152603960f91b606082015260800190565b60208082526031908201527f4552433732313a207472616e736665722063616c6c6572206973206e6f74206f6040820152701ddb995c881b9bdc88185c1c1c9bdd9959607a1b606082015260800190565b90815260200190565b6000821982111561191a5761191a6119e0565b500190565b60008261192e5761192e6119f6565b500490565b600082821015611945576119456119e0565b500390565b60005b8381101561196557818101518382015260200161194d565b838111156107125750506000910152565b60028104600182168061198a57607f821691505b602082108114156119ab57634e487b7160e01b600052602260045260246000fd5b50919050565b60006000198214156119c5576119c56119e0565b5060010190565b6000826119db576119db6119f6565b500690565b634e487b7160e01b600052601160045260246000fd5b634e487b7160e01b600052601260045260246000fd5b634e487b7160e01b600052604160045260246000fd5b6001600160e01b031981168114611a3857600080fd5b5056fea2646970667358221220858fade7940ec0ce67ae7a9c50b09cdbb8443b9e6408c3a3dacf0d34390033a364736f6c63430008000033",
  "linkReferences": {},
  "deployedLinkReferences": {}
}